{
  "_format": "hh-sol-artifact-1",
  "contractName": "CreditSystem",
  "sourceName": "contracts/CreditSystem.sol",
  "abi": [
    {
      "inputs": [
        {
          "internalType": "address",
          "name": "_rupiahToken",
          "type": "address"
        }
      ],
      "stateMutability": "nonpayable",
      "type": "constructor"
    },
    {
      "anonymous": false,
      "inputs": [
        {
          "indexed": true,
          "internalType": "address",
          "name": "user",
          "type": "address"
        },
        {
          "indexed": false,
          "internalType": "uint256",
          "name": "amount",
          "type": "uint256"
        }
      ],
      "name": "CreditApproved",
      "type": "event"
    },
    {
      "anonymous": false,
      "inputs": [
        {
          "indexed": true,
          "internalType": "address",
          "name": "user",
          "type": "address"
        },
        {
          "indexed": false,
          "internalType": "uint256",
          "name": "amount",
          "type": "uint256"
        }
      ],
      "name": "CreditRequested",
      "type": "event"
    },
    {
      "inputs": [],
      "name": "admin",
      "outputs": [
        {
          "internalType": "address",
          "name": "",
          "type": "address"
        }
      ],
      "stateMutability": "view",
      "type": "function"
    },
    {
      "inputs": [
        {
          "internalType": "address",
          "name": "user",
          "type": "address"
        }
      ],
      "name": "approveCredit",
      "outputs": [],
      "stateMutability": "nonpayable",
      "type": "function"
    },
    {
      "inputs": [
        {
          "internalType": "address",
          "name": "",
          "type": "address"
        }
      ],
      "name": "approvedCredits",
      "outputs": [
        {
          "internalType": "bool",
          "name": "",
          "type": "bool"
        }
      ],
      "stateMutability": "view",
      "type": "function"
    },
    {
      "inputs": [
        {
          "internalType": "address",
          "name": "",
          "type": "address"
        }
      ],
      "name": "creditRequests",
      "outputs": [
        {
          "internalType": "uint256",
          "name": "",
          "type": "uint256"
        }
      ],
      "stateMutability": "view",
      "type": "function"
    },
    {
      "inputs": [
        {
          "internalType": "address",
          "name": "user",
          "type": "address"
        }
      ],
      "name": "getCreditAmount",
      "outputs": [
        {
          "internalType": "uint256",
          "name": "",
          "type": "uint256"
        }
      ],
      "stateMutability": "view",
      "type": "function"
    },
    {
      "inputs": [
        {
          "internalType": "uint256",
          "name": "amount",
          "type": "uint256"
        }
      ],
      "name": "payCredit",
      "outputs": [],
      "stateMutability": "nonpayable",
      "type": "function"
    },
    {
      "inputs": [
        {
          "internalType": "uint256",
          "name": "amount",
          "type": "uint256"
        }
      ],
      "name": "requestCredit",
      "outputs": [],
      "stateMutability": "nonpayable",
      "type": "function"
    },
    {
      "inputs": [],
      "name": "rupiahToken",
      "outputs": [
        {
          "internalType": "contract IERC20",
          "name": "",
          "type": "address"
        }
      ],
      "stateMutability": "view",
      "type": "function"
    }
  ],
  "bytecode": "0x608060405234801561001057600080fd5b50604051610cb6380380610cb68339818101604052810190610032919061011c565b336000806101000a81548173ffffffffffffffffffffffffffffffffffffffff021916908373ffffffffffffffffffffffffffffffffffffffff16021790555080600160006101000a81548173ffffffffffffffffffffffffffffffffffffffff021916908373ffffffffffffffffffffffffffffffffffffffff16021790555050610149565b600080fd5b600073ffffffffffffffffffffffffffffffffffffffff82169050919050565b60006100e9826100be565b9050919050565b6100f9816100de565b811461010457600080fd5b50565b600081519050610116816100f0565b92915050565b600060208284031215610132576101316100b9565b5b600061014084828501610107565b91505092915050565b610b5e806101586000396000f3fe608060405234801561001057600080fd5b50600436106100885760003560e01c8063d58f35771161005b578063d58f357714610113578063d62605d514610143578063dcc98c9d1461015f578063f851a4401461018f57610088565b806301e98bfa1461008d578063a52b962d146100a9578063a5722198146100d9578063b6b1d5ca146100f7575b600080fd5b6100a760048036038101906100a2919061074c565b6101ad565b005b6100c360048036038101906100be919061074c565b610323565b6040516100d09190610792565b60405180910390f35b6100e161036c565b6040516100ee919061080c565b60405180910390f35b610111600480360381019061010c9190610853565b610392565b005b61012d6004803603810190610128919061074c565b610427565b60405161013a919061089b565b60405180910390f35b61015d60048036038101906101589190610853565b610447565b005b6101796004803603810190610174919061074c565b6106ad565b6040516101869190610792565b60405180910390f35b6101976106c5565b6040516101a491906108c5565b60405180910390f35b60008054906101000a900473ffffffffffffffffffffffffffffffffffffffff1673ffffffffffffffffffffffffffffffffffffffff163373ffffffffffffffffffffffffffffffffffffffff161461023b576040517f08c379a00000000000000000000000000000000000000000000000000000000081526004016102329061093d565b60405180910390fd5b6001600360008373ffffffffffffffffffffffffffffffffffffffff1673ffffffffffffffffffffffffffffffffffffffff16815260200190815260200160002060006101000a81548160ff0219169083151502179055508073ffffffffffffffffffffffffffffffffffffffff167fd1751f8e617407e572a7977525af3e358151d8650c27e87fe155b1f12a3be94a600260008473ffffffffffffffffffffffffffffffffffffffff1673ffffffffffffffffffffffffffffffffffffffff168152602001908152602001600020546040516103189190610792565b60405180910390a250565b6000600260008373ffffffffffffffffffffffffffffffffffffffff1673ffffffffffffffffffffffffffffffffffffffff168152602001908152602001600020549050919050565b600160009054906101000a900473ffffffffffffffffffffffffffffffffffffffff1681565b80600260003373ffffffffffffffffffffffffffffffffffffffff1673ffffffffffffffffffffffffffffffffffffffff168152602001908152602001600020819055503373ffffffffffffffffffffffffffffffffffffffff167f4bcdc8c4e44b31be744ac2494ab91b09234c21e24fa1cb0a1b4de3a85ef74d418260405161041c9190610792565b60405180910390a250565b60036020528060005260406000206000915054906101000a900460ff1681565b600360003373ffffffffffffffffffffffffffffffffffffffff1673ffffffffffffffffffffffffffffffffffffffff16815260200190815260200160002060009054906101000a900460ff166104d3576040517f08c379a00000000000000000000000000000000000000000000000000000000081526004016104ca906109a9565b60405180910390fd5b600160009054906101000a900473ffffffffffffffffffffffffffffffffffffffff1673ffffffffffffffffffffffffffffffffffffffff166323b872dd3330846040518463ffffffff1660e01b8152600401610532939291906109c9565b6020604051808303816000875af1158015610551573d6000803e3d6000fd5b505050506040513d601f19601f820116820180604052508101906105759190610a2c565b6105b4576040517f08c379a00000000000000000000000000000000000000000000000000000000081526004016105ab90610aa5565b60405180910390fd5b80600260003373ffffffffffffffffffffffffffffffffffffffff1673ffffffffffffffffffffffffffffffffffffffff16815260200190815260200160002060008282546106039190610af4565b925050819055506000600260003373ffffffffffffffffffffffffffffffffffffffff1673ffffffffffffffffffffffffffffffffffffffff16815260200190815260200160002054036106aa576000600360003373ffffffffffffffffffffffffffffffffffffffff1673ffffffffffffffffffffffffffffffffffffffff16815260200190815260200160002060006101000a81548160ff0219169083151502179055505b50565b60026020528060005260406000206000915090505481565b60008054906101000a900473ffffffffffffffffffffffffffffffffffffffff1681565b600080fd5b600073ffffffffffffffffffffffffffffffffffffffff82169050919050565b6000610719826106ee565b9050919050565b6107298161070e565b811461073457600080fd5b50565b60008135905061074681610720565b92915050565b600060208284031215610762576107616106e9565b5b600061077084828501610737565b91505092915050565b6000819050919050565b61078c81610779565b82525050565b60006020820190506107a76000830184610783565b92915050565b6000819050919050565b60006107d26107cd6107c8846106ee565b6107ad565b6106ee565b9050919050565b60006107e4826107b7565b9050919050565b60006107f6826107d9565b9050919050565b610806816107eb565b82525050565b600060208201905061082160008301846107fd565b92915050565b61083081610779565b811461083b57600080fd5b50565b60008135905061084d81610827565b92915050565b600060208284031215610869576108686106e9565b5b60006108778482850161083e565b91505092915050565b60008115159050919050565b61089581610880565b82525050565b60006020820190506108b0600083018461088c565b92915050565b6108bf8161070e565b82525050565b60006020820190506108da60008301846108b6565b92915050565b600082825260208201905092915050565b7f4f6e6c792061646d696e2063616e20617070726f766500000000000000000000600082015250565b60006109276016836108e0565b9150610932826108f1565b602082019050919050565b600060208201905081810360008301526109568161091a565b9050919050565b7f437265646974206e6f7420617070726f76656400000000000000000000000000600082015250565b60006109936013836108e0565b915061099e8261095d565b602082019050919050565b600060208201905081810360008301526109c281610986565b9050919050565b60006060820190506109de60008301866108b6565b6109eb60208301856108b6565b6109f86040830184610783565b949350505050565b610a0981610880565b8114610a1457600080fd5b50565b600081519050610a2681610a00565b92915050565b600060208284031215610a4257610a416106e9565b5b6000610a5084828501610a17565b91505092915050565b7f5061796d656e74206661696c6564000000000000000000000000000000000000600082015250565b6000610a8f600e836108e0565b9150610a9a82610a59565b602082019050919050565b60006020820190508181036000830152610abe81610a82565b9050919050565b7f4e487b7100000000000000000000000000000000000000000000000000000000600052601160045260246000fd5b6000610aff82610779565b9150610b0a83610779565b9250828203905081811115610b2257610b21610ac5565b5b9291505056fea26469706673582212200aeea05abbf76302229868cd34ed384c738bd0ab53934edfca2d19190704e59e64736f6c63430008140033",
  "linkReferences": {},
  "deployedLinkReferences": {}
}